:100000000C94D51A0C94061B0C94061B0C94061B1E
:100010000C94061B0C94061B0C94061B0C94061BDC
:100020000C94061B0C94061B0C94061B0C94061BCC
:100030000C94061B0C94061B0C94061B0C94061BBC
:100040000C94061B0C94C6BC0C94061B0C94061B4B
:100050000C94061B0C94061B0C94B5740C945874E9
:100060000C94061B0C94D0520C94061B0C94061B8B
:100070000C94061B0C94061B0C94061B0C94061B7C
:100080000C94061B0C94061B0C94061B0C94061B6C
:100090000C94061B0C94061B0C94061B0C948D6987
:1000A0000C94061B0C94061B0C94061B0C94061B4C
:1000B0000C94061B0C94061B0C94061B0C94061B3C
:1000C0000C94061B0C94061B0C94061B0C94061B2C
:1000D0000C94061B0C94061B0C94061B0C94061B1C
:1000E0000C94061BB834BB34BF34C334C734CB3490
:1000F000C135CF34D334D834C135DD34E334E734BB
:10010000EB34EF34F334C135F734FB340135C1350A
:1001100007351D351F352D352F35313533353935FB
:100120003B353D353F3549354B354D354F355535EB
:100130005735C135C135C135C135C135C135C13579
:10014000C135C135C135C135C135C135C135C135FF
:10015000C135C135C135C135C135C135C135C135EF
:10016000C135C135C135C135C135C135C135C135DF
:10017000C135C135C135C135C135C135C135C135CF
:10018000C135C135C135C135C135C135C135C135BF
:10019000C135C135C135C135C135C135C135C135AF
:1001A000C135C135C135C135C135C135613582353E
:1001B000B547B547C347D147ED47FB4709481748FF
:1001C0002848DF47D672D972C872CC72D0721073C9
:1001D000DD72E172E772EB72EF72F572F972FD7225
:1001E0001073037307730B7387738C7391739B7313
:1001F000A5731E74AF73B773BF73C973D373DD7305
:10020000EC73F6731E7400740A741474084AD73BB6
:100210003BCE016E84BCBFFDC12F3D6C74319ABDD5
:1002200056833DDA3D00C77F11BED9E4BB4C3E91F9
:100230006BAAAABE000000803F05A84CCDB2D44EE8
:10024000B93836A9020C50B9918688083CA6AAAAEA
:100250002ABE000000803F00436172642065727214
:100260006F723A004E6F74205344207072696E743E
:10027000696E67002F005344207072696E74696E56
:1002800067206279746520002E0044656C6574698E
:100290006F6E206661696C65642C2046696C653AF6
:1002A000200046696C652064656C657465643A007D
:1002B0002E006F70656E206661696C65642C204647
:1002C000696C653A2000504944204175746F74751B
:1002D0006E652066696E6973686564212050757467
:1002E00020746865204B702C204B6920616E64205F
:1002F0004B6420636F6E7374616E747320696E74E7
:100300006F20436F6E66696775726174696F6E2ED8
:100310006800504944204175746F74756E6520669D
:1003200061696C6564212074696D656F7574002066
:10033000403A006F6B20543A006F6B20423A0050F5
:100340004944204175746F74756E65206661696CEF
:100350006564212054656D706572617475726520E5
:10036000746F6F206869676800204B643A20002032
:100370004B693A2000204B703A200020436C617397
:1003800069632050494420002054753A2000204BD6
:10039000753A2000206D61783A2000206D696E3A30
:1003A000200020643A200020626961733A200050E6
:1003B0004944204175746F74756E65207374617261
:1003C0007400504944204175746F74756E652066E1
:1003D00061696C65642E2042616420657874727571
:1003E000646572206E756D6265722E000D0A003FA5
:1003F0000056657273696F6E20444556000D0A0001
:10040000556E6B6E6F776E20636F6D6D616E643AC3
:100410002000544553540D0A002200556E6B6E6F38
:10042000776E20636F6D6D616E643A202200456CBB
:10043000656374726F6E6963735F74657374004192
:1004400063746976652045787472756465723A20C4
:1004500000496E76616C69642065787472756465B4
:100460007200540020423A300020423A31006F6B53
:1004700020523A0020633A0020643A0020693A0092
:1004800020703A006F6B002200556E6B6E6F776EB6
:1004900020636F6D6D616E643A2022006F70656E2F
:1004A00000545249474745524544007A5F6D617890
:1004B0003A20006F70656E005452494747455245D7
:1004C0004400795F6D61783A20006F70656E00546A
:1004D000524947474552454400785F6D696E3A205E
:1004E000005265706F7274696E6720656E64737414
:1004F0006F7020737461747573005A3A00593A0032
:1005000020436F756E7420583A2000453A005A3ADD
:1005100000593A00583A004649524D574152455FFA
:100520004E414D453A4D61726C696E20556C74694F
:100530006D616B6572323B20537072696E746572C7
:100540002F6772626C206D617368757020666F72C0
:100550002067656E36204649524D574152455F55DA
:10056000524C3A687474703A2F2F676974687562D8
:100570002E636F6D2F556C74696D616B65722050C1
:10058000524F544F434F4C5F56455253494F4E3A8A
:10059000312E30204D414348494E455F5459504516
:1005A0003A556C74696D616B6572204558545255AB
:1005B0004445525F434F554E543A310A0020423A67
:1005C0000020453A00543A003F0020573A002045A9
:1005D0003A00543A002042403A0020403A00202F8E
:1005E0000020423A00202F006F6B20543A0025690A
:1005F000206D696E2C2025692073656300456E644B
:100600002066696C65206C69737400426567696E69
:100610002066696C65206C69737400435045004125
:10062000425300504C41002020506C616E6E657248
:1006300042756666657242797465733A2000204699
:10064000726565204D656D6F72793A20004E6F7648
:10065000203132203230313600436F6D70696C6565
:10066000643A200056657273696F6E2044455600E7
:10067000207C20417574686F723A20004E6F76209E
:10068000313220323031362031363A34373A343054
:1006900000204C61737420557064617465643A2065
:1006A00000312E302E30004D61726C696E200020BA
:1006B000536F6674776172652052657365740020AC
:1006C0005761746368646F672052657365740020B6
:1006D00042726F776E206F75742052657365740077
:1006E0002045787465726E616C2052657365740084
:1006F000506F7765725570007374617274004D3875
:100700003420582059205A2045006563686F3A000C
:10071000256920686F757273202569206D696E7573
:1007200074657300446F6E65207072696E74696ED3
:10073000672066696C65005072696E74657220731B
:10074000746F707065642064756520746F206572C5
:10075000726F72732E204669782074686520657206
:10076000726F7220616E6420757365204D3939395E
:1007700020746F20726573746172742E2028546522
:100780006D7065726174757265206973207265732E
:1007900065742E20536574206974206166746572D7
:1007A0002072657374617274696E6729006F6B00E3
:1007B0004E6F204C696E65204E756D6265722077B4
:1007C00069746820636865636B73756D2C204C6178
:1007D0007374204C696E653A20004E6F2043686543
:1007E000636B73756D2077697468206C696E652022
:1007F0006E756D6265722C204C617374204C696E4D
:10080000653A2000636865636B73756D206D69736D
:100810006D617463682C204C617374204C696E6543
:100820003A20004C696E65204E756D6265722069D4
:1008300073206E6F74204C617374204C696E652058
:100840004E756D6265722B312C204C617374204C97
:10085000696E653A20004572726F723A004D31310F
:1008600030006572726F722077726974696E6720EA
:10087000746F2066696C6500205A3A0020593A006E
:1008800020583A00656E6473746F707320686974E1
:100890003A20006563686F3A00446F6E65207361AB
:1008A00076696E672066696C652E006F6B004D324D
:1008B00039003F3F3F0043757272656E74204500FA
:1008C00043757272656E74205A0043757272656E5C
:1008D0007420582F59004D6178207370656564202D
:1008E0005A004D61782073706565642059004D6130
:1008F00078207370656564205800582F59204A6528
:10090000726B00416363656C65726174696F6E0040
:100910003C2052455455524E006D41006D41006DD2
:1009200041006D6D2F736563006D6D2F73656300FE
:100930006D6D2F736563006D6D2F736563006D6D55
:100940002F7365635E32006D410043757272656E90
:10095000742045006D410043757272656E74205AB3
:10096000006D410043757272656E7420582F5900F6
:100970006D6D2F736563004D6178207370656564DC
:10098000205A006D6D2F736563004D617820737080
:100990006565642059006D6D2F736563004D617846
:1009A0002073706565642058006D6D2F736563005A
:1009B000582F59204A65726B0030306D6D2F73656A
:1009C000635E3200416363656C65726174696F6E6A
:1009D000004D4F54494F4E003F3F3F0020476C6F42
:1009E00077207768656E20646F6E6500204F6E20FB
:1009F0007768696C65207072696E74696E67002033
:100A0000416C77617973204F66660020416C776195
:100A10007973204F6E004272696768746E657373F4
:100A2000003C2052455455524E002500250042728C
:100A3000696768746E657373004C454400473238CB
:100A4000205830205930004731204625692058254C
:100A50006920592569004732382058302059300024
:100A600052455455524E0053455454494E47530035
:100A70004348414E474500666F72206D6174657250
:100A800069616C2072656D6F76616C004865617498
:100A9000696E67207072696E746865616400526582
:100AA00076657273696E67206D6174657269616CD9
:100AB0000052656D6F7665206D6174657269616C59
:100AC0000043414E43454C005245414459002500E6
:100AD00046616E3A2000430043002500466C6F7764
:100AE0003A006D6D004D4154455249414C006D61D5
:100AF00074657269616C20696E73657274696F6E7A
:100B000000436F6F6C696E67207072696E74686500
:100B1000616420666F720048656174696E67207059
:100B200072696E746865616420666F720061626FDD
:100B3000766520746865206172726F772E00796F18
:100B40007572206D616368696E652C0066726F6DE9
:100B500020746865206261636B73696465206F66E9
:100B600000496E73657274206E6577206D617465DF
:100B70007269616C0043414E43454C00524541440B
:100B80005900466F7277617264696E67206D617497
:100B9000657269616C00636F6D6573206F75742099
:100BA000746865206E6F7A7A6C650057616974208D
:100BB00074696C6C206D6174657269616C0043418D
:100BC0004E43454C00524541445900696E204D4109
:100BD00054455249414C2E54585400746F20746847
:100BE000652053442063617264005361766564201C
:100BF0006D6174657269616C73004F6B005072694E
:100C00006E74696E672077697468205553422E2E82
:100C10002E00756C74696D616B65722E636F6D2F3C
:100C20004552303700476F20746F3A0058206F727A
:100C300020592073776974636820737475636B003F
:100C4000756C74696D616B65722E636F6D2F4552A3
:100C5000303700476F20746F3A0058206F72205968
:100C6000207377697463682062726F6B656E0075BC
:100C70006C74696D616B65722E636F6D2F455230B8
:100C80003600476F20746F3A005A20737769746397
:100C90006820737475636B00756C74696D616B6546
:100CA000722E636F6D2F4552303500476F20746F81
:100CB0003A005A207377697463682062726F6B65BB
:100CC0006E00756C74696D616B65722E636F6D2F4C
:100CD0004552303400476F20746F3A0053616665A7
:100CE0007479206369726375697400756C74696DD9
:100CF000616B65722E636F6D2F4552303300476F05
:100D000020746F3A00486561746572206572726F75
:100D10007200756C74696D616B65722E636F6D2FF7
:100D20004552303200476F20746F3A0054656D7041
:100D30002073656E736F722042454400756C746950
:100D40006D616B65722E636F6D2F455230310047B8
:100D50006F20746F3A0054656D702073656E736F09
:100D600072004552524F52202D2053544F5050453F
:100D7000440053657474696E67732053746F7265B1
:100D800064002044002049002020204D33303120D1
:100D900050005049442073657474696E67733A005B
:100DA000205A0020590020204D323036205800486B
:100DB0006F6D65206F666673657420286D6D293AC6
:100DC00000204500205A00205800204200205400F6
:100DD00020204D323035205300416476616E6365CA
:100DE00064207661726961626C65733A20533D4D8F
:100DF000696E20666565647261746520286D6D2F6B
:100E000073292C20543D4D696E2074726176656C97
:100E100020666565647261746520286D6D2F732985
:100E20002C20423D6D696E696D756D207365676D2F
:100E3000656E742074696D6520286D73292C2058A7
:100E40003D6D6178696D756D205859206A65726BCA
:100E500020286D6D2F73292C20205A3D6D617869F3
:100E60006D756D205A206A65726B20286D6D2F7329
:100E7000292C2020453D6D6178696D756D204520D8
:100E80006A65726B20286D6D2F7329002054002035
:100E9000204D323034205300416363656C657261CC
:100EA00074696F6E3A20533D616363656C6572616E
:100EB00074696F6E2C20543D726574726163742086
:100EC000616363656C65726174696F6E00204500D3
:100ED000205A0020590020204D3230312058004D3A
:100EE0006178696D756D20416363656C65726174CD
:100EF000696F6E20286D6D2F7332293A00204500EE
:100F0000205A0020590020204D3230332058004D07
:100F10006178696D756D206665656472617465736D
:100F200020286D6D2F73293A00204500205A00209B
:100F3000590020204D3932205800537465707320B9
:100F400070657220756E69743A0056303130005306
:100F5000746F7265642073657474696E6773207250
:100F600065747269657665640048617264636F6474
:100F700065642044656661756C742053657474699A
:100F80006E6773204C6F61646564006563686F3AD7
:100F9000002200656E717565696E6720220022006F
:100FA000656E717565696E672022000000664300FA
:100FB0008060430000AB4300000000000000000020
:100FC00000000000000000008060430000AB4350C0
:100FD00072696E7465722068616C7465642E206B32
:100FE000696C6C28292063616C6C65642100507207
:100FF000696E7465722073746F70706564206475B7
:101000006520746F206572726F72732E2046697846
:1010100020746865206572726F7220616E6420753D
:101020007365204D39393920746F2072657374618E
:1010300072742E202854656D7065726174757265C6
:101040002069732072657365742E2053657420695E
:10105000742061667465722072657374617274695C
:101060006E6729004D32313820496E76616C6964B3
:1010700020657874727564657220004D31303920B6
:10108000496E76616C696420657874727564657206
:1010900020004D31303520496E76616C69642065E1
:1010A0007874727564657220004D31303420496E59
:1010B00076616C696420657874727564657220006D
:1010C000456E6473746F70207374696C6C207072F9
:1010D0006573736564206166746572206261636B19
:1010E000696E67206F66662E20456E6473746F703C
:1010F00020737475636B3F000000E0400000E04027
:101100000000E040456E6473746F70206E6F742051
:101110007072657373656420616674657220686FB0
:101120006D696E6720646F776E2E20456E647374F0
:101130006F702062726F6B656E3F00456E647374F2
:101140006F70206E6F7420707265737365642061B8
:101150006674657220686F6D696E6720646F776E64
:101160002E20456E6473746F702062726F6B656EB3
:101170003F00FF010100006643008060430000ABB8
:101180004300002110422063308440A550C660E730
:1011900070088129914AA16BB18CC1ADD1CEE1EF2C
:1011A000F13112100273325222B5529442F772D6C4
:1011B00062399318837BB35AA3BDD39CC3FFF3DE7C
:1011C000E36224433420040114E664C774A4448514
:1011D000546AA54BB528850995EEE5CFF5ACC58DCC
:1011E000D55336722611163006D776F6669556B464
:1011F000465BB77AA719973887DFF7FEE79DD7BC1C
:10120000C7C448E5588668A77840086118022823B3
:1012100038CCC9EDD98EE9AFF9488969990AA92B6B
:10122000B9F55AD44AB77A966A711A500A333A1203
:101230002AFDDBDCCBBFFB9EEB799B588B3BBB1ABB
:10124000ABA66C877CE44CC55C222C033C600C4153
:101250001CAEED8FFDECCDCDDD2AAD0BBD688D490B
:101260009D977EB66ED55EF44E133E322E511E70A3
:101270000E9FFFBEEFDDDFFCCF1BBF3AAF599F785B
:101280008F8891A981CAB1EBA10CD12DC14EF16F0C
:10129000E18010A100C230E3200450254046706771
:1012A00060B9839893FBA3DAB33DC31CD37FE35E9D
:1012B000F3B1029012F322D23235421452776256C1
:1012C00072EAB5CBA5A89589856EF54FE52CD50DAD
:1012D000C5E234C324A01481046674476424540511
:1012E00044DBA7FAB79987B8975FE77EF71DC73C3D
:1012F000D7D326F2369106B0165766767615463461
:10130000564CD96DC90EF92FE9C899E9898AB9AB4C
:10131000A94458654806782768C018E1088238A3B0
:10132000287DCB5CDB3FEB1EFBF98BD89BBBAB9ADC
:10133000BB754A545A376A167AF10AD01AB32A9200
:101340003A2EFD0FED6CDD4DCDAABD8BADE89DC9EC
:101350008D267C076C645C454CA23C832CE01CC150
:101360000C1FEF3EFF5DCF7CDF9BAFBABFD98FF87C
:101370009F176E367E554E745E932EB23ED10EF0A0
:101380001E7C3C3E5E2B3D3F2F5B5D3B2C2A225C4E
:1013900000000000000000005F00000007000700E0
:1013A000147F147F14242A7F2A12231308646236C0
:1013B000495522500005030000001C224100004155
:1013C000221C00082A1C2A0808083E080800503081
:1013D00000000808080808006060000020100804E9
:1013E000023E5149453E00427F400042615149461C
:1013F0002141454B311814127F1027454545393C92
:101400004A494930017109050336494949360649B7
:1014100049291E0036360000005636000000081428
:101420002241141414141441221408000201510919
:1014300006324979413E7E1111117E7F4949493674
:101440003E414141227F4141221C7F494949417F20
:10145000090901013E414151327F0808087F0041DE
:101460007F41002040413F017F081422417F4040DE
:1014700040407F0204027F7F0408107F3E414141CB
:101480003E7F090909063E4151215E7F091929461F
:10149000464949493101017F01013F4040403F1F1A
:1014A0002040201F7F2018207F631408146303044A
:1014B000780403615149454300007F41410204081B
:1014C000102041417F0000040201020440404040DE
:1014D00040000102040020545454787F48444438AA
:1014E0003844444420384444487F385454541808FD
:1014F0007E090102081454543C7F08040478004417
:101500007D40002040443D00007F10284400417F82
:1015100040007C041804787C08040478384444446F
:10152000387C14141408081414187C7C080404086B
:101530004854545420043F4440203C4040207C1CEC
:101540002040201C3C4030403C44281028440C5093
:1015500050503C4464544C44000836410000007F25
:101560000000004136080008082A1C08081C2A0848
:10157000082073656300206D696E0020686F7572C6
:101580000020686F75727300627574746F6E2074DA
:101590006F20636F6E74696E756500556C74696D4C
:1015A000616B6572212050726573732074686500E9
:1015B00073746172747570206F6620796F75720034
:1015C00057656C636F6D6520746F20746865206665
:1015D0006972737400312F323100434F4E54494EBB
:1015E000554500473120462569205A256920582550
:1015F000692059256900473238205A302058302058
:101600005930006275696C64706C6174652E006F8E
:10161000662061646A757374696E6720796F75728C
:10162000007468726F756768207468652070726FE7
:101630006365737300492077696C6C206775696412
:101640006520796F750043414E43454C00434F4E32
:1016500054494E554500473120462569205A256991
:1016600000473238205A3000612066697273742056
:1016700072756E2077697A6172642E0077616C6B87
:1016800020796F75207468726F756768006669727B
:101690007374207374617274757020492077696C5B
:1016A0006C004265636175736520746869732069B5
:1016B000732074686500322F323100434F4E544915
:1016C0004E554500473120462569205A2569205846
:1016D0002569205925690047323820583020593073
:1016E000000A006469616D657465723D000A0066F8
:1016F0006C6F773D000A0066616E5F7370656564AC
:101700003D000A006265645F74656D7065726174A6
:101710007572653D000A003D007265747261637404
:10172000696F6E5F73706565645F000A003D0072EB
:10173000657472616374696F6E5F6C656E677468FF
:101740005F000A003D0074656D70657261747572AA
:10175000655F000A0074656D70657261747572650D
:101760003D000A006E616D653D005B6D61746572E0
:1017700069616C5D0A0052656164696E672063612E
:1017800072642E2E2E00506C6561736520696E7335
:101790006572742063617264004E6F2053442D4360
:1017A000415244210066726F6D2074686520534475
:1017B0002063617264004C6F61646564206D6174C4
:1017C000657269616C73004F6B003D0072657472E5
:1017D000616374696F6E5F73706565645F003D007F
:1017E00072657472616374696F6E5F6C656E677445
:1017F000685F0074656D70657261747572655F0015
:101800006469616D6574657200666C6F770066610E
:101810006E5F7370656564006265645F74656D70AA
:10182000657261747572650074656D70657261745E
:10183000757265006E616D65005B6D6174657269DE
:10184000616C5D00466F756E64206F6E206361721F
:10185000642E004E6F206578706F72742066696C1C
:10186000650052656164696E6720636172642E2E43
:101870002E00506C6561736520696E73657274200B
:1018800063617264004E6F2053442D4341524421E2
:10189000004578706F727420746F20534400496D56
:1018A000706F72742066726F6D20534400437573BD
:1018B000746F6D697A65003C2052455455524E0054
:1018C000250046616E3A2000430043002500466C27
:1018D0006F773A006D6D004C6F61647320616C6CC2
:1018E000206D6174657269616C7300536176657314
:1018F00020616C6C206D6174657269616C73004D60
:101900006F64696679207468652073657474696EA4
:101910006773004D4154455249414C0053656C6515
:1019200063746564206D6174657269616C3A004F1F
:101930004B003F3F3F0053746F726520617320700E
:1019400072657365740052657472616374696F6E59
:1019500000466C6F7720250046616E004469616D1A
:101960006574657200486561746564206275696CB0
:1019700064706C6174650054656D70657261747536
:101980007265003C2052455455524E0025002500FA
:101990006D6D00430043200043200025004D61741D
:1019A000657269616C20666C6F7700250046616E18
:1019B000207370656564006D6D004D6174657269BA
:1019C000616C204469616D65746572004300427505
:1019D000696C64706C6174652054656D702E004D87
:1019E0004154455249414C00202D20496E76616C8E
:1019F0006964206578747275646572206E756D62B5
:101A000065722021000000000018070100A80714DB
:101A10000030082800B8083C0038095000C00964AC
:101A200000480A7800C80A8C00480BA000C80BB414
:101A300000480CC800C80CDC00400DF000C00D04CC
:101A400001380E1801B00E2C01280F4001A00F54D0
:101A5000011810680188107C01001190013013F406
:101A600001481558024017BC0228192003F01A84B7
:101A700003A81CE803401E4C043A20457874727594
:101A8000646572207377697463686564206F666645
:101A90002E204D415854454D50207472696767653A
:101AA0007265642021003A2045787472756465720D
:101AB000207377697463686564206F66662E204DB5
:101AC000494E54454D50207472696767657265646C
:101AD00020210054656D70657261747572652068AF
:101AE00065617465642062656420737769746368F6
:101AF0006564206F66662E204D415854454D502038
:101B0000747269676765726564202121004572728D
:101B10006F723A0000002100240027002A002D00E7
:101B20003000330001010000040107010A01000038
:101B30002200250028002B002E0031003400020175
:101B40000000050108010B0105050505070508084A
:101B50000808020202020A0A080804040404010137
:101B6000010101010101030303030303030304074C
:101B700007070C0C0C0C0C0C0C0C020202020606E3
:101B80000606060606060B0B0B0B0B0B0B0B0102D6
:101B9000102020080810204010204080020102017F
:101BA0000804020101020408102040808040201037
:101BB0000804020180040201804020100804020190
:101BC00008040201010204081020408001020408F8
:101BD0001020408000000A0B02090C0D0E080703BC
:101BE00004010000000000000000000000000000F0
:101BF00000000000000000000000000000000000E5
:101C000012111000000000000000000000000000A1
:101C100000000000000000000000534420636172D7
:101C200064206F6B006F70656E526F6F7420666119
:101C3000696C656400766F6C756D652E696E69748C
:101C4000206661696C6564004572726F723A005378
:101C50004420696E6974206661696C006563686F11
:101C60003A004D3234004D323320257300617574D3
:101C70006F25692E67004D41494E54454E414E43F4
:101C800045004D4154455249414C005052494E5433
:101C90000043414E43454C00507265763A20003C6B
:101CA0002052455455524E0054656D7065726174F2
:101CB0007572653A20004300430054656D7065728B
:101CC0006174757265004D4154455249414C003C68
:101CD0002052455455524E005265747261637469C6
:101CE0006F6E3A20006D6D2F73006D6D20004D41B9
:101CF00054455249414C0052657472616374206CC2
:101D0000656E677468003F3F3F005265747261639F
:101D100074207370656564003C2052455455524EE2
:101D2000006D6D2F736563006D6D006D6D2F7365B4
:101D3000630052657472616374207370656564003A
:101D40006D6D0052657472616374206C656E6774AA
:101D5000680052455452414354494F4E003C205272
:101D6000455455524E004E65772070726573657408
:101D70000050524553455453005450552039354175
:101D8000004350452B004E796C6F6E00504300436A
:101D900050450041425300504C410054696D65204C
:101DA0006C6566740054696D65206C656674207599
:101DB0006E6B6E6F776E0043004300486561746917
:101DC0006E67206275696C64706C617465004300B5
:101DD000430048656174696E67005072696E74698A
:101DE0006E673A0050415553450054554E450054D6
:101DF000554E45004348414E47457C4D4154455260
:101E000049414C00524553554D457C5052494E5422
:101E100000756C74696D616B65722E636F6D2F4513
:101E200052303800476F20746F3A00726561646900
:101E30006E672053442D6361726421004572726F96
:101E400072207768696C650052455455524E205493
:101E50004F204D41494E006F66207072696E746963
:101E60006E672061726561005472696564207072EA
:101E7000696E74696E67206F7574004552524F52D7
:101E80003A0052455455524E20544F204D41494E30
:101E90000066726F6D2074686520736C696365728B
:101EA0002E0073657474696E672077697468207397
:101EB000657474696E67006F766572726964652017
:101EC0006D616368696E6500546869732066696C4A
:101ED000652077696C6C0043414E43454C00434F8D
:101EE0004E54494E554500257320767320257300C6
:101EF0006D6174657269616C2E00666F722061207D
:101F0000646966666572656E7400546869732066FC
:101F1000696C652069732063726561746564004350
:101F2000414E43454C00434F4E54494E55450041A8
:101F3000626F727420746865207072696E743F00FD
:101F40004E4F005945530043004320005072696EC4
:101F500074657220636F6F6C696E6720646F776E53
:101F6000004241434B20544F204D454E550074686C
:101F700065207072696E742E00596F752063616EF2
:101F80002072656D6F7665005072696E74206669A7
:101F90006E6973686564004241434B20544F204D85
:101FA000454E55004C4544204272696768746E6521
:101FB00073730052657472616374696F6E004D6172
:101FC00074657269616C20666C6F770046616E2083
:101FD0007370656564004275696C64706C617465EA
:101FE0002074656D702E0054656D70657261747536
:101FF00072650053706565640041626F7274003CE5
:102000002052455455524E0025002500250043001E
:1020100043004300430025004300432F00436C6905
:10202000636B20746F2072657475726E004E6F7AE8
:102030007A6C652074656D70657261747572653A4D
:102040000025004272696768746E6573730025002D
:102050004D6174657269616C20666C6F7700250054
:1020600046616E2073706565640025005072696E6C
:10207000742073706565640054554E450052657454
:1020800072616374206C656E677468003F3F3F0047
:1020900052657472616374207370656564003C20DE
:1020A00052455455524E006D6D2F736563006D6D32
:1020B000006D6D2F736563005265747261637420E7
:1020C0007370656564006D6D005265747261637450
:1020D000206C656E67746800524554524143544900
:1020E0004F4E004D363031205835205935205A2575
:1020F00069204C25690020746F6F206C6F6E67201B
:10210000657874727573696F6E2070726576656E2E
:102110007465640020636F6C6420657874727573F5
:10212000696F6E2070726576656E746564006563B4
:10213000686F3A00676F696E6720746F20646F2064
:1021400074686174206E6F772E0061646A757374B1
:102150006D656E74732C20776520617265007765FC
:10216000206E65656420746F20646F20736F6D65E9
:10217000004166746572207472616E73706F727460
:102180006174696F6E00332F323100434F4E5449F2
:102190004E554500473120462569205A30004731C9
:1021A0002046256920582569205925690047312096
:1021B000462569205A350066726F6D207468652067
:1021C0006275696C64706C6174652E0061206D6964
:1021D0006C6C696D65746572206177617900756EEC
:1021E00074696C20746865206E6F7A7A6C652069FA
:1021F0007300526F74617465207468652062757431
:10220000746F6E00342F323100434F4E54494E5597
:102210004500434F4E54494E554500473120462511
:1022200069205A3000473120462569205825692009
:1022300059256900473120462569205A35006672C4
:102240006F6D20746865206275696C64706C617470
:10225000652E0069732061206D696C6C696D657411
:1022600065722061776179007363726577207469A4
:102270006C6C20746865206E6F7A7A6C650054759A
:10228000726E206C656674206275696C64706C6136
:10229000746500352F323100434F4E54494E554539
:1022A0000066726F6D20746865206275696C647079
:1022B0006C6174652E0069732061206D696C6C69B6
:1022C0006D657465722061776179007363726577FB
:1022D0002074696C6C20746865206E6F7A7A6C6506
:1022E000005475726E207269676874206275696C3B
:1022F00064706C61746500362F323100434F4E5468
:10230000494E554500473120462569205A3000473F
:102310003120462569205825692059256900473113
:1023200020462569205A3500746865206275696CFD
:1023300064706C617465206C6576656C2E007061EC
:1023400070657220746F2066696E652D74756E6598
:10235000006E6F7720757365206120736865657402
:10236000206F66005265706561742074686973201F
:10237000737465702C2062757400372F32310043FE
:102380004F4E54494E554500626974207265736919
:102390007374616E63652E00756E74696C20796F5D
:1023A00075206665656C2061006275696C64706C8F
:1023B00061746520616E64206E6F7A7A6C6500537B
:1023C0006C6964652061207061706572206265745B
:1023D0007765656E00382F323100434F4E54494EB9
:1023E000554500434F4E54494E554500746865208D
:1023F0006C65667420636F726E65722E2E2E0052AD
:102400006570656174207468697320666F72003945
:102410002F323100434F4E54494E55450047323814
:10242000205A300074686520726967687420636F91
:10243000726E65722E2E2E00526570656174207466
:1024400068697320666F720031302F323100434F5C
:102450004E54494E554500444F4E45004D383400CA
:102460004731204631323030302058313130205918
:10247000313000746F20696E73657274206D617401
:10248000657269616C2E00746865206E65787420D1
:102490007374657020697300746865206275696C77
:1024A00064706C617465004E6F772074686174208D
:1024B0007765206C6576656C65640031312F32314B
:1024C00000434F4E54494E554500556C74696D613B
:1024D0006B6572322E00696E7365727420696E20AE
:1024E00074686973006D6174657269616C20796FDD
:1024F000752077696C6C004E6578742C2073656C60
:10250000656374207468650031322F3231005245A2
:102510004144590053656C65637420746865206D8F
:102520006174657269616C00206173206D6174650E
:102530007269616C2C0031332F3231004D415445AA
:102540005249414C0069732074686973207269674D
:1025500068743F00596F7520686176652063686F05
:1025600073656E0031342F3231004E4F00594553A0
:10257000006974206973207573696E672E006F6639
:10258000206D6174657269616C006B6E6F7773208A
:1025900077686174206B696E64004E6F7720796F85
:1025A000757220556C74696D616B657232003135DE
:1025B0002F323100434F4E54494E5545006D6174E2
:1025C000657269616C206C6F6164696E670070721E
:1025D000696E74686561642068656174696E6720FE
:1025E000666F7200506C6561736520776169742C49
:1025F0000031362F32310061626F76652074686574
:10260000206172726F772E00796F757220556C742D
:10261000696D616B6572322C0066726F6D20746833
:10262000652072656172206F6600496E7365727411
:10263000206E6577206D6174657269616C00313759
:102640002F323100434F4E54494E5545004C6F6177
:1026500064696E67206D6174657269616C2E2E2EDF
:102660000031382F32310066726F6D206E6F7A7ACA
:102670006C652E2E2E006D6174657269616C20652B
:1026800078697473005075736820627574746F6E26
:10269000207768656E0031392F323100434F4E5438
:1026A000494E5545006D616B6520612033442050D3
:1026B00072696E74210049276D207265616479200A
:1026C0006C657427730032302F323100415245203F
:1026D000594F552052454144593F00746F20707244
:1026E000696E742069742100616E64207072657374
:1026F000732074686520627574746F6E006F6E204D
:102700007468652053442D636172640053656C6581
:1027100063742061207072696E742066696C650054
:1027200032312F3231004C45542753205052494EFC
:10273000540052656164696E6720636172642E2E75
:102740002E0032312F323100796F757220556C7442
:10275000696D616B6572322E2E2E00746861742073
:1027600063616D65207769746800506C656173659D
:1027700020696E736572742053442D636172640026
:1027800032312F32310052455455524E0041445699
:10279000414E434544004255494C442D7C504C41E8
:1027A0005445003F3F3F00466163746F7279207269
:1027B000657365740052756E74696D65207374611C
:1027C00074730056657273696F6E004D6F74696F34
:1027D0006E2073657474696E677300536574206648
:1027E000616E207370656564004D6F7665206D6164
:1027F00074657269616C00496E73657274206D61F5
:1028000074657269616C00526169736520627569F3
:102810006C64706C617465004C6F776572206275D2
:10282000696C64706C61746500486F6D65206865E3
:10283000616400486561747570206275696C6470CC
:102840006C61746500486561747570206E6F7A7A8A
:102850006C65004C45442073657474696E67730041
:102860003C2052455455524E0056657273696F6E46
:10287000204445560025004300432F004300432FCA
:1028800000250047323820583020593000250046B6
:10289000616E2073706565640047312046256920AC
:1028A0005825692059256900473238205830205969
:1028B00030004731205A343000473238205A300037
:1028C000473238205A3000473238205830205930AB
:1028D00000473238205A3000414456414E43454467
:1028E000004300432F00436C69636B20746F2072B8
:1028F000657475726E004E6F7A7A6C652074656DC2
:1029000070657261747572653A004300432F00432D
:102910006C69636B20746F2072657475726E0052FF
:102920006F7461746520746F206578747275646566
:10293000004E6F7A7A6C652074656D706572617493
:102940007572653A004300432F00436C69636B2046
:10295000746F2072657475726E004275696C647074
:102960006C6174652074656D702E3A0056657273E3
:10297000696F6E20444556004E6F7620313220320A
:102980003031362031363A34373A343300526574B8
:1029900075726E006D00204D61743A003A005072FD
:1029A000696E74696E673A003A004D616368696EDA
:1029B00065206F6E20666F723A0052657475726E94
:1029C00000746F2064656661756C743F00526573B6
:1029D00065742065766572797468696E67004E4F1C
:1029E0000059455300801506060606FEFEFEFEFC55
:1029F00000000000000000FCFEFEFEFC0000000ED7
:102A0000FEFEFEFE0000E0FCFEFEFCE0E00000003A
:102A1000CECECE000000C0C0C0C0C0C0800000004C
:102A200000000080C0C0800000000000008080C066
:102A3000C0C0C0C0C0C080800000000006FEFEFE16
:102A4000FE0000000080C0C0C00000000000008048
:102A500080C0C0C080808000000000C0C0C0C00036
:102A600080C0C0C0C08000000000007FFFFFFFFFEB
:102A700080000000000080FFFFFFFFFF000000005B
:102A8000FFFFFFFF000000FFFFFFFF00000000004E
:102A9000FFFFFF00000081F1FFFF3F0F3FFFFCF051
:102AA000F0FCFF3F0F3FFFFEF880000000C1E1F1A6
:102AB000F17131010183FFFFFFFC000000FFFFFF08
:102AC000FF000C3EFFFFF7C301000000FCFEFF8784
:102AD00003113131333F3F3F1E000001FFFFFFFF75
:102AE00007030101010100000000000001030707C6
:102AF0000F0F0F0F0F0F0F0707070F0F0600000034
:102B0000070F0F07000000070F0F0700000000006D
:102B10000F0F0F0000060F0F070100000001070F45
:102B20000F070100000001070F0F06000003070F49
:102B30000F0E0E060703070F0F07000000070F0F09
:102B40000700000000030F0F0F0600000003070737
:102B50000F0E0E0E0E0E0E06000000000F0F0F0FD0
:102B60000000000000000043616E6E6F74206F7003
:102B7000656E207375626469720057726974696E5C
:102B80006720746F2066696C653A20002E006F70B4
:102B9000656E206661696C65642C2046696C653AD7
:102BA00020002E006F70656E206661696C65642C74
:102BB0002046696C653A200046696C652073656C37
:102BC0006563746564002053697A653A200046693C
:102BD0006C65206F70656E65643A20002E006F7022
:102BE000656E206661696C65642C2046696C653A87
:102BF000200024F4D43050C38E20C2A24017828B10
:102C00007011127A910D816CD90AA861E108C75838
:102C10006607615143061E4B5D05C145A7041A4175
:102C20001104093D9803713931034036DB026533E5
:102C30009102D4305402802E1D02632CEE01752ABD
:102C4000C501B028A001102781018F2564012B2424
:102C50004B01E0223401AC211F018D200D01801FAA
:102C6000FC00841EED00971DDF00B81CD200E61B9F
:102C7000C600201BBC00641AB200B219A8000A19D1
:102C8000A0006A189900D117910040178B00B51663
:102C9000840031167E00B31579003A157300C7140D
:102CA0006F0058146A00EE13660088136300251342
:102CB0005E00C7125B006C12570015125400C11160
:102CC000510070114F0021114B00D61049008D109A
:102CD00047004610440002104200C00F4000800F21
:102CE0003E00420F3C00060F3B00CB0E3800930E17
:102CF00037005C0E3500270E3400F30D3200C10D95
:102D00003100900D3000600D2E00320D2D00050DAC
:102D10002C00D90C2B00AE0C2900850C29005C0C72
:102D20002700350C27000E0C2600E80B2400C40BEE
:102D30002400A00B23007D0B23005A0B2100390B2C
:102D40002100180B2000F80A1F00D90A1E00BB0A38
:102D50001E009D0A1D00800A1D00630A1C00470A10
:102D60001B002C0A1B00110A1A00F7091A00DD09C2
:102D70001900C4091900AB091900920917007B0951
:102D80001800630917004C091600360916002009BF
:102D900016000A091500F5081500E0081400CC0813
:102DA0001400B8081400A4081400900813007D084B
:102DB00012006B081300580812004608120034086D
:102DC0001100230811001208110001081100F0077A
:102DD0001000E0071000D0071000C0071000B00777
:102DE0000F00A107100091070E0083070F00740762
:102DF0000F0065070E0057070E0049070E003B073E
:102E00000D002E070E0020070D0013070D0006070A
:102E10000D00F9060C00ED060D00E0060C00D406CE
:102E20000C00C8060C00BC060C00B0060C00A40682
:102E30000B0099060C008D060B0082060B0077062E
:102E40000B006C060B0061060A0057060B004C06CF
:102E50000A0042060A0038060A002E060A00240666
:102E60000A001A060A001006090007060A00FD05F6
:102E70000900F4050900EB050900E2050900D90580
:102E80000900D0050900C7050900BE050900B50500
:102E90000800AD050800A50509009C05080094057B
:102EA00008008C050800840508007C0508007405EE
:102EB00008006C050700650508005D05070056055C
:102EC00008004E05070047050700400508003805C3
:102ED0000700310507002A050700230507001C0528
:102EE0000600160507000F05070008050600020585
:102EF0000700FB040600F5040700EE040600E804E2
:102F00000600E2040700DB040600D5040600CF0437
:102F10000600C9040600C3040600BD040600B70489
:102F20000600B1040500AC040600A6040600A004D7
:102F300005009B04060095040500900406008A0421
:102F4000050085040500800406007A040500750468
:102F50000500700405006B040500660405006104AB
:102F600005005C04050057040500520405004D04EB
:102F7000050048040500430405003E0404003A042B
:102F8000050035040500300404002C040500270466
:102F90000400230405001E0404001A04040016049F
:102FA0000500110404000D040400090405000404D4
:102FB000040000040400FC030400F8030400F4030C
:102FC0000400F0030400EC030400E8030400E4033D
:102FD0000400E0030400DC030400D8030400D4036D
:102FE0000400D0030400CC030400C8030300C5039D
:102FF000030024F404D9201BC40C5C0E9804C409FB
:103000005F0265077101F405F900FB04B300480491
:103010008700C10369005803550003034500BE0241
:103020003A008402310053022A00290225000402DA
:103030002000E4011C00C8011900AF01170098012D
:10304000140084011300710110006101100051018E
:103050000E0043010D0036010B002B010B00200177
:103060000B00150109000C01090003010800FB0019
:103070000800F3000800EB000700E4000600DE0093
:103080000600D8000600D2000600CC000500C700EC
:103090000500C2000500BD000400B9000400B50031
:1030A0000400B1000400AD000400A9000400A50064
:1030B0000300A20003009F0004009B00030098008F
:1030C00003009500020093000300900003008D00B0
:1030D00002008B00030088000200860002008400CA
:1030E0000300810002007F0002007D0002007B00DF
:1030F00002007900020077000100760002007400EF
:10310000020072000100710002006F0002006D00F9
:1031100001006C0002006A00010069000200670003
:103120000100660001006500010064000200620009
:10313000010061000100600001005F0002005D000D
:1031400001005C0001005B0001005A000100590011
:103150000100580001005700010056000100550011
:103160000100540001005300000053000100520010
:10317000010051000100500001004F0001004E000D
:1031800000004E0001004D0001004C0001004B000A
:1031900000004B0001004A00010049000100480006
:1031A0000000480001004700010046000000460002
:1031B00001004500000045000100440001004300FB
:1031C00000004300010042000000420001004100F5
:1031D000000041000100400001003F0000003F00EE
:1031E00001003E0000003E0001003D0000003D00E7
:1031F00001003C0000003C0000003C0001003B00DE
:1032000000003B0001003A0000003A0001003900D4
:1032100000003900010038000000380000003800CC
:1032200001003700000037000100360000003600C2
:1032300000003600010035000000350000003500B8
:1032400001003400000034000000340001003300AD
:1032500000003300000033000100320000003200A3
:103260000000320001003100000031000000310098
:1032700001003000000030000000300001002F008D
:1032800000002F0000002F0000002F0001002E0082
:1032900000002E0000002E0001002D0000002D0077
:1032A00000002D0000002D0001002C0000002C006B
:1032B00000002C0000002C0001002B0000002B005F
:1032C00000002B0000002B0001002A0000002A0053
:1032D00000002A0000002A00010029000000290047
:1032E000000029000000290000002900010028003A
:1032F000000028000000280000002800000028002E
:103300000100270000002700000027000000270020
:103310000000270001002600000026000000260013
:103320000000260000002600010025000000250006
:1033300000002500000025000000250000002500F9
:1033400001002400000024000000240000002400EC
:1033500000002400010023000000230000002300DF
:1033600000002300000023000000230000002300D1
:1033700001002200000022000000220000002200C4
:1033800000002200000022000100210000002100B6
:1033900000002100000021000000210000002100A9
:1033A000000021000100200000002000000020009B
:1033B000000020000000200000002000000020008D
:1033C0000000200001001F0000001F0000001F007F
:1033D00000001F0000001F0000001F0000001F0071
:1033E00001001E0000001E0000001E0000001E0064
:1033F00000004D38340047323800473238205A3008
:1034000000473238205830205930004731204625B7
:10341000692045300047393220452569004D343058
:1034200031003C204241434B003C20524554555210
:103430004E004E6F20696E666F20617661696C6127
:10344000626C65004E6F7A7A6C653A20006D006D93
:10345000004D6174657269616C3A200054696D6554
:103460003A20003B4D545950453A003B4E4F5A5A72
:103470004C455F4449414D455445523A003B4D410E
:1034800054455249414C3A003B54494D453A004657
:103490006F6C6465720043616E6E6F7420656E744C
:1034A0006572207375626469723A20005344204348
:1034B00041524400473120463132303030205835B7
:1034C0002059313000473238003B464C41564F526C
:1034D0003A556C746947436F6465003B464C4156EE
:1034E0004F523A556C746947436F6465004E6F20C4
:1034F00066696C657320666F756E6421004F4B00C2
:103500004F4B0052656164696E6720636172642E7F
:103510002E2E00506C6561736520696E7365727440
:103520002063617264004E6F2053442D4341524426
:103530002100507265706172696E6720746F20702F
:1035400072696E743A0048656174696E67207570BF
:103550002E2E2E0041424F52540054554E450052DB
:103560006573656E643A20006F6B004E414E494EA4
:10357000495459494E46CDCCCC3D0AD7233C17B7C8
:10358000D13877CC2B329595E6241FB14F0A000035
:1035900020410000C84200401C4620BCBE4CCA1B53
:1035A0000E5AAEC59D7463E242E211241FBECFEFF6
:1035B000D1E2DEBFCDBF00E00CBF13E0A0E0B2E07F
:1035C000EAE7FEED01E00BBF02C007900D92AE32BC
:1035D000B107D9F729E1AEE2B3E001C01D92A43FE3
:1035E000B207E1F71AE1C4EDDAE100E006C0219785
:1035F0000109802FFE010E9435E3C33DD10780E021
:103600000807A9F70E94B8D50C942BEF0C94000082
:103610002F923F924F925F926F927F928F929F92E2
:10362000AF92BF92CF92DF92EF92FF920F931F93D0
:10363000CF93DF93CDB7DEB7CB56D1090FB6F89451
:10364000DEBF0FBECDBF1092890F87E40E94A75145
:10365000F82E882309F419C40E94CD510E94A5E4D4
:103660006A30710509F48EC084F46230710581F10D
:1036700024F477FF23C00C9427366330710581F161
:1036800064307105C1F10C9427366A35710509F46F
:10369000BCC354F46B30710509F40AC16C31710577
:1036A00009F47CC10C9427366B35710509F4B1C35C
:1036B0006C35710509F4B2C30C9427368091B204BD
:1036C000811106C00E947DD30E94BED20C94033C9F
:1036D0008091B204811104C00E94E1D481E007C04E
:1036E0008091B204811107C00E94E1D480E00E9461
:1036F0007ECF0C94033C80E50E94A751882339F0CB
:103700000E94CD510E94AAE46B017C0103C0C12C30
:10371000D12C760183E50E94A751882361F00E9495
:10372000CD5120E030E04AE754E40E9444E70E9493
:10373000AAE46B017C010E94B0BC0E944C74C60ECE
:10374000D71EE81EF91E0E944C746093EF07709319
:10375000F0078093F1079093F20781E08093890F3F
:103760000E944C746C157D058E059F0510F00C941D
:1037700027360E94EC770E94EE5F0E9461470E940C
:10378000FC9BEECF8091C51981110C942736809156
:10379000330B9091340BA091350BB091360B809385
:1037A000B40A9093B50AA093B60AB093B70A809171
:1037B000370B9091380BA091390BB0913A0B809355
:1037C000B80A9093B90AA093BA0AB093BB0A809141
:1037D0003B0B90913C0BA0913D0BB0913E0B809325
:1037E000BC0A9093BD0AA093BE0AB093BF0AC090D2
:1037F0003F0BD090400BE090410BF090420BE091DA
:103800005B0B24E0E29FF0011124E95AF44F208180
:1038100031814281538160913702709138028091E9
:10382000390290913A020E943DE49B01AC01C7012C
:10383000B6010E9460E39B01AC016093C00A7093E3
:10384000C10A8093C20A9093C30A80901A02909092
:103850001B02A0901C02B0901D0280913302909137
:103860003402A0913502B091360280931A029093EF
:103870001B02A0931C02B0931D02C701B6010E9457
:1038800060E36093C8197093C9198093CA19909323
:10389000CB1981E08093C5190E94BED280921A0292
:1038A00090921B02A0921C02B0921D020C9427362B
:1038B0008091C519882311F40C9427368091330B1D
:1038C0009091340BA091350BB091360B8093B40AD4
:1038D0009093B50AA093B60AB093B70A8091370BBC
:1038E0009091380BA091390BB0913A0B8093B80AA4
:1038F0009093B90AA093BA0AB093BB0A80913B0B8C
:1039000090913C0BA0913D0BB0913E0B8093BC0A73
:103910009093BD0AA093BE0AB093BF0A2091C81924
:103920003091C9194091CA195091CB1960913F0B40
:103930007091400B8091410B9091420B0E9461E38A
:103940006093C00A7093C10A8093C20A9093C30A1D
:10395000C0901A02D0901B02E0901C02F0901D0251
:103960008091460290914702A0914802B09149028D
:1039700080931A0290931B02A0931C02B0931D0225
:103980001092C5190E94BED2C0921A02D0921B0298
:10399000E0921C02F0921D020C94273685E0809381
:1039A000890F80911A0290911B02A0911C02B09184
:1039B0001D028093300390933103A0933203B093A0
:1039C0003303809131029091320290932F038093C0
:1039D0002E0384E690E090933202809331020E949D
:1039E0004C746093EF077093F0078093F107909306
:1039F000F20711E0109315028091330B9091340B74
:103A0000A091350BB091360B8093B40A9093B50A10
:103A1000A093B60AB093B70A8091370B9091380BF8
:103A2000A091390BB0913A0B8093B80A9093B90AE0
:103A3000A093BA0AB093BB0A80913B0B90913C0BC8
:103A4000A0913D0BB0913E0B8093BC0A9093BD0AB0
:103A5000A093BE0AB093BF0A80913F0B9091400B98
:103A6000A091410BB091420B8093C00A9093C10A80
:103A7000A093C20AB093C30A10921A0210921B02BA
:103A800010921C0210921D0288E50E94A751882303
:103A900011F080E009C089E50E94A7518111F9CF9A
:103AA0008AE50E94A751812780930402882309F4A4
:103AB000F4C01092330B1092340B1092350B10920D
:103AC000360B1092370B1092380B1092390B109264
:103AD0003A0B10923B0B10923C0B10923D0B109244
:103AE0003E0B0E94277F80E090E8ACEAB3EC809325
:103AF000B40A9093B50AA093B60AB093B70A80E0CF
:103B000090E6A8EAB3E48093B80A9093B90AA09328
:103B1000BA0AB093BB0A80E090E4A0E0B4E48093DA
:103B2000BC0A9093BD0AA093BE0AB093BF0A80E07E
:103B300090E8ABEBB5E480931A0290931B02A0933C
:103B40001C02B0931D024BE5C42E4BE0D42EE12C99
:103B5000F12C08EC12E420EC3AE04CEB5AE068EB74
:103B60007AE084EB9AE00E94839D0E94B0BC0E94A0
:103B700041C380E090E00E946F5181E090E00E949C
:103B80006F5182E090E00E946F510E94277F8091E8
:103B9000330B9091340BA091350BB091360B809381
:103BA000B40A9093B50AA093B60AB093B70A80916D
:103BB000370B9091380BA091390BB0913A0B809351
:103BC000B80A9093B90AA093BA0AB093BB0A80913D
:103BD0003B0B90913C0BA0913D0BB0913E0B809321
:103BE000BC0A9093BD0AA093BE0AB093BF0A20E01E
:103BF00030E040E752E460911A0270911B0280911C
:103C00001C0290911D020E943DE47B018C0120EC7E
:103C10003AE04CEB5AE068EB7AE084EB9AE00E94E1
:103C2000839D10921A0210921B0210921C02109295
:103C30001D020E94B0BC0E9441C38091B40A9091C1
:103C4000B50AA091B60AB091B70A8093330B90934E
:103C5000340BA093350BB093360B8091B80A90913A
:103C6000B90AA091BA0AB091BB0A8093370B90931E
:103C7000380BA093390BB0933A0B8091BC0A90910A
:103C8000BD0AA091BE0AB091BF0A80933B0B9093EE
:103C90003C0BA0933D0BB0933E0B8091040281112D
:103CA0000C942C368AE50E94A75181110C942C3675
:103CB0008091040281110C94323688E50E94A7514C
:103CC000882331F089E50E94A75181110C94323686
:103CD0008091040281110C94FE3688E50E94A75160
:103CE00081110C94FE368091040281110C940437EA
:103CF00089E50E94A75181110C94043788E50E9440
:103D0000A7518823D1F00E94C251672B682B692BE1
:103D1000A1F00E94CD5120919E1030919F104091B2
:103D2000A0105091A1100E9461E36093330B709337
:103D3000340B8093350B9093360B89E50E94A75185
:103D40008823D1F00E94C251672B682B692BA1F008
:103D50000E94CD512091A2103091A3104091A41047
:103D60005091A5100E9461E36093370B7093380B5C
:103D70008093390B90933A0B8AE50E94A7518823D0
:103D8000D1F00E94C251672B682B692BA1F00E94D1
:103D9000CD512091A6103091A7104091A8105091BC
:103DA000A9100E9461E360933B0B70933C0B8093DE
:103DB0003D0B90933E0B0E94277F1092150280913D
:103DC000300390913103A0913203B091330380937B
:103DD0001A0290931B02A0931C02B0931D028091C3
:103DE0002E0390912F0390933202809331020E9410
:103DF0004C746093EF077093F0078093F1079093F2
:103E0000F2070E9441C30C9427361092D1190C94EA
:103E1000273681E08093D1190C94273685E40E94DF
:103E2000A751811102C00E94B0BC25E0C22E23E040
:103E3000D22E33E3E32E3BE0F32E10E0D6018D913A
:103E40006D010E94A7518823C1F0133061F40E94D4
:103E5000CD51F70160837183828393838FE39BE06D
:103E60000E94779B0AC00E94CD51D7016D937D932C
:103E70008D939C9313970E94277F1F5FB4E0EB0EF6
:103E8000F11C1430D9F60C9427368DE40E94A7510A
:103E9000882311F40C94B3330E94CD510E94A5E401
:103EA0006C38710509F404C40CF0AAC060357105C2
:103EB00009F44BC60CF04CC06731710509F4F2C12E
:103EC00034F56231710509F44DC69CF477FF02C0E8
:103ED0000C942736623071050CF476C1613171059E
:103EE00011F00C94273615984698439840980C94F6
:103EF00027366531710509F4C9C10CF0CBC16431B5
:103F0000710511F00C942736EBE0F6E076C16B31C9
:103F1000710509F404C23CF46931710509F4EDC17D
:103F20000CF4D6C1EEC16E31710509F498C234F4B7
:103F30006C31710509F461C20C9427366F3171053B
:103F400009F4F9C26A32710509F451C30C94273699
:103F50006A36710509F484C524F56435710509F4E0
:103F600001C654F46235710509F4F3C50CF0F5C5CA
:103F70000A9A12980C9427366C35710509F445C6D7
:103F800034F46535710509F425C60C942736683676
:103F9000710509F466C36936710509F4A5C30C946B
:103FA00027366337710509F4B6C68CF46D36710592
:103FB00009F440C46237710509F4CEC66B36710549
:103FC00011F00C94273610929D100C942736673709
:103FD000710509F4A3C734F46537710509F4AAC65D
:103FE0000C9427366837710509F494C76937710551
:103FF00011F00C94273681E0809315020C9427363B
:10400000643FE1E07E0711F40C947D2E0CF060C05B
:10401000613D710511F40C9434294CF56C3C71052B
:1040200011F40C9441287CF4693C710509F4E9C74A
:104030006B3C710511F40C9423286E3B710511F053
:104040000C94273650C46E3C710511F40C94C328AF
:1040500014F40C9463286F3C710511F40C94E1285E
:10406000603D710511F40C9412290C9427366D32C1
:1040700021E0720711F40C944D2A94F46D3D710502
:1040800011F40C94A9296C3241E0740711F40C94DA
:10409000C0296C3D710511F00C9427360C949829B9
:1040A0006F3251E0750711F40C942E2B14F40C941C
:1040B000192B603991E0790711F40C947A2E61394B
:1040C000714011F00C9427360E948EBC0C94273658
:1040D000603AB3E07B0709F4F9C19CF56935F2E079
:1040E0007F0711F40C94862E94F4663F31E0730739
:1040F00011F40C94832E14F40C94802E673F7140BD
:1041000011F00C9427360E946B540C9427366E35B0
:1041100082E0780711F40C944E313CF46D35724016
:1041200011F40C9495300C9427366B38B3E07B0770
:1041300011F40C940B326B39734009F49EC10C944A
:1041400027366231F7E27F0711F40C948E3224F5A2
:10415000603137E2730711F40C94493214F00C9477
:104160004C32673E734011F00C9427361092B20423
:104170008091F3079091F407A091F507B091F607AD
:104180008093B3049093B404A093B504B093B604A1
:104190000E943BD50C942736643187E2780711F4EE
:1041A0000C940F3314F40C94DF326531A7E27A07D4
:1041B00011F40C943F336A31774211F00C94273696
:1041C000EEE6F4E00C94763381E080938A0D8091E2
:1041D0008A0D882311F40C9427360E94EC770E94F4
:1041E000EE5F0E9461470E94FC9BF1CF9091C0005E
:1041F00095FFFCCF8093C600319684918111F6CF54
:104200008091C00085FFFCCF8AE08093C6001092A9
:10421000800F10927F0F40E050E0BA018CEB9DE0E0
:104220000E94174B8BE1ECEBFDE0DE01159601904F
:104230000D928A95E1F78091BA0D9091BB0D9C8308
:104240008B8389EE92E09A838983BE016F5F7F4FF3
:104250008DE293E00E9469B9CE0101960E94EB5C69
:10426000EDEFF5E08491882341F09091C00095FF37
:10427000FCCF8093C6003196F5CF8091C00085FFBA
:10428000FCCF8AE08093C6000C9427360E94B97D4B
:104290000C9427361092890D10928A0D1092B70D4A
:1042A0000C9427360091B7041091B8040C5F1F4F8F
:1042B0006AE270E0C8010E94FEE6009719F0FC0176
:1042C0003197108261E0C8010E9482B70C942736B2
:1042D0008091B70D882329F081E08093890D109299
:1042E0008A0D0E944C74609322047093230480937F
:1042F0002404909325040C9427360E945CB90C94F6
:1043000027368091B70D882311F40C9427368091BD
:10431000310F882311F40C940A370C9427368091BE
:10432000B70D8823A9F1E6E7F2E08491882341F0F4
:104330009091C00095FFFCCF8093C6003196F5CFD9
:1043400060917A0F70917B0F80917C0F90917D0F1F
:104350004AE00E94BD7BE4E7F2E08491882341F0CB
:104360009091C00095FFFCCF8093C6003196F5CFA9
:104370006091720F7091730F8091740F9091750F0F
:104380004AE00E94BD7B8091C00085FFFCCF11C038
:10439000E4E6F2E08491882341F09091C00095FF1B
:1043A000FCCF8093C6003196F5CF8091C00085FF89
:1043B000FCCF8AE08093C6006091310F662311F430
:1043C0000C942736E8E5F2E08491882341F090913F
:1043D000C00095FFFCCF8093C6003196F5CF70E00A
:1043E00080E090E00E94327C8091C00085FFFCCF8D
:1043F0008AE08093C6000C9427368091B704909190
:10440000B8046AE270E004960E94FEE68C01892BF3
:10441000E1F02091D2073091D30740E6429FC001DE
:10442000439F900D11246EE470E08E529B4F0E94CA
:10443000FEE660E270E00E94FEE601969093B8040A
:104440008093B704F801319710828091B70490915E
:10445000B80460E004960E9482B70C9427368091DD
:10446000B70D882311F40C9427368091310F8823DF
:1044700011F40C9421370C9427360091B704109155
:10448000B8040C5F1F4F6AE270E0C8010E94FEE6AC
:10449000009719F0FC013197108261E0C8010E9479
:1044A00082B78091B70D882329F081E08093890D30
:1044B00010928A0D0E944C7460932204709323041E
:1044C00080932404909325040C9427368091B7049C
:1044D0009091B8046AE270E005960E94FEE68C01B5
:1044E000892BE1F02091D2073091D30740E6429F1B
:1044F000C001439F900D11246EE470E08E529B4FDB
:104500000E94FEE660E270E00E94FEE60196909353
:10451000B8048093B704F801319710828091B704F2
:104520009091B80421E02093880D60E005960E94E8
:1045300082B70C9427360E944C74609326047093C3
:104540002704809328049093290400912204109159
:1045500023042091240430912504601B710B820BED
:10456000930B28EE33E040E050E00E94F0EECA01E9
:10457000B9012CE330E040E050E00E94F0EE7F9380
:104580006F933F932F938EEE95E09F938F938E01C1
:104590000F5F1F4F1F930F930E946FEBEAE0F7E04E
:1045A00084910FB6F894DEBF0FBECDBFEAE0F7E00E
:1045B000882349F09091C00095FFFCCF8093C600FE
:1045C00031968491F5CFF8018191882339F090914B
:1045D000C00095FFFCCF8093C600F6CF8091C0004D
:1045E00085FFFCCF8AE08093C6000C94273683E5D4
:1045F0000E94A751882311F40C9427360E94CD51B4
:104600000E94A5E4F62EE72E862F9E2D8C0180E5D4
:104610000E94A751882331F00F3F110509F010F4D3
:104620000C94923888E090E0E0E6F2E0219131913C
:104630002817390711F40C94273622E0E839F207DD
:10464000A9F78730910519F4F0929D1004C097FFE7
:1046500002C00C9427366F2D7E2D0E9460730C943F
:10466000273688E690E00E94F35C81110C9427368F
:1046700083E50E94A751882311F40C9427360091FA
:10468000F7070E94CD5110E00E94A5E4F801EE0F5B
:10469000FF1FE952F54F718360836430714014F459
:1046A0000C94273684E091E0918380830C94273624
:1046B00083E50E94A751882311F40C9427360E94A9
:1046C000CD510E94A5E47093DA0A6093D90A63374A
:1046D000710514F40C94273683E790E09093DA0A7E
:1046E0008093D90A0C94273689E690E00E94F35C07
:1046F00081110C942736E8EEF5E08491882341F08F
:104700009091C00095FFFCCF8093C6003196F5CF05
:10471000E091F70744E0E49FF0011124ED52F54FDA
:10472000608171818281938141E00E94447CE5EE49
:10473000F5E08491882341F09091C00095FFFCCF73
:104740008093C6003196F5CFE091F707F0E0EE0FC9
:10475000FF1FE952F54F60817181072E000C880B15
:10476000990B0E94A4EB41E00E94447CE1EEF5E04D
:104770008491882341F09091C00095FFFCCF8093F5
:10478000C6003196F5CF6091CF0A7091D00A809122
:10479000D10A9091D20A41E00E94447CEEEDF5E00E
:1047A0008491882341F09091C00095FFFCCF8093C5
:1047B000C6003196F5CF6091D90A7091DA0A072EBA
:1047C000000C880B990B0E94A4EB41E00E94447CF2
:1047D000EAEDF5E08491882341F09091C00095FFC7
:1047E000FCCF8093C6003196F5CFE091F707F0E05B
:1047F000E352F54F608170E080E090E00E94327CEF
:10480000E5EDF5E08491882341F09091C00095FF9B
:10481000FCCF8093C6003196F5CF6091DC0A70E042
:1048200080E090E00E94327C8091C00085FFFCCF48
:104830000C94AE338DE690E00E94F35C81110C94F1
:10484000273683E08093890F83E50E94A751882350
:10485000A9F00091F7070E94CD5110E00E94A5E455
:10486000F801EE0FFF1FE952F54F7183608364304A
:10487000714024F084E091E0918380830E944C7425
:104880002B013C01E091F7070E2F10E0F801EE0F2D
:10489000FF1FE952F54F60817181072E000C880BD4
:1048A000990B0E94A4EBF801EE0FFF1FEE0FFF1F04
:1048B000ED52F54F11E020813181428153810E94F8
:1048C00087E518160CF010E088248A94982C54017F
:1048D0006AEC262E65E0362E78ECE72E75E0F72E92
:1048E0000AE00C942E3984E08093890F83E50E94BE
:1048F000A751882389F00E94CD510E94A5E47093AE
:10490000DA0A6093D90A6337710534F083E790E0DF
:104910009093DA0A8093D90A0E944C744B015C018F
:1049200005EC15E071ECE72E75E0F72EEDEBCE2EE1
:10493000E5E0DE2EFAE07F2E8091D90A9091DA0A26
:104940000297BC01990F880B990B0E94A4EB9B0165
:10495000AC016091CF0A7091D00A8091D10A9091F8
:10496000D20A0E949EEB87FF6FC00E944C74DC014C
:10497000CB0188199909AA09BB09893E9340A10571
:10498000B10508F458C0E0915B0B24E0E29FF00110
:104990001124ED52F54F6081718182819381F8017C
:1049A0002491E5ECF5E0222349F03091C00035FF79
:1049B000FCCF2093C60031962491F5CF42E00E94AF
:1049C000447CF7018491E1ECF5E0882349F0909173
:1049D000C00095FFFCCF8093C60031968491F5CF3F
:1049E00060915B0B70E080E090E00E94327CF60109
:1049F0008491EDEBF5E0882349F09091C00095FF9C
:104A0000FCCF8093C60031968491F5CF6091CF0A98
:104A10007091D00A8091D10A9091D20A41E00E940F
:104A2000447C8091C00085FFFCCF7092C6000E943C
:104A30004C744B015C010E94EC770E94EE5F0E9477
:104A400061470E94FC9B78CF0E944C746093EF07F3
:104A50007093F0078093F1079093F2070C94273638
:104A600083E50E94A751882309F461C00E94CD51BB
:104A70006B017C0180914502682F70E080E090E03E
:104A80000E94A4EB9B01AC01C701B6010E9444E760
:104A900020E030E048EC52E40E943DE420E030E0C9
:104AA000A9010E949EEB87FD3BC00E94CD516B0186
:104AB0007C0180914502682F70E080E090E00E94C8
:104AC000A4EB9B01AC01C701B6010E9444E720E0C2
:104AD00030E048EC52E40E943DE420E030E04FE753
:104AE00053E40E9487E51816ECF00E94CD516B014B
:104AF0007C0180914502682F70E080E090E00E9488
:104B0000A4EB9B01AC01C701B6010E9444E720E081
:104B100030E048EC52E40E943DE40E94AAE403C065
:104B200060E001C06FEF60939D100C942736809178
:104B30004502FFEF8F9FC001112464E670E00E94E0
:104B400005E360939D100C9427360A9A129A0C94F0
:104B500027361092D5190C94273681E08093D51909
:104B60000C94273683E50E94A7518823A1F00E9468
:104B7000CD5120E030E04AE754E40E9444E70E942F
:104B8000AAE4609316027093170280931802909320
:104B900019020C94273688E50E94A75181110C94C4
:104BA000DC3989E50E94A75181110C94DC398AE532
:104BB0000E94A75181110C94DC3985E40E94A75111
:104BC00081110C94DC390E94B0BC409A0E94C0BC98
:104BD0000C94273683E50E94A751882311F40C9486
:104BE00027360E94CD5120E030E04AE754E40E948D
:104BF00044E70E94AAE46093EB077093EC0780936C
:104C0000ED079093EE070C94273655E0852E53E080
:104C1000952E0CE61BE061E8A62E60E1B62E2AEA8E
:104C200034E13DAF2CAF312CD4018D914D010E9468
:104C3000A751882309F45EC0B3E03B1254C00E9420
:104C4000CD512B013C0120E030E040EA51E40E94CC
:104C50009EEB87FF41C0A3019201F8016081718141
:104C6000828193810E943DE46B017C019B01AC0138
:104C700060916D1070916E1080916F109091701016
:104C80000E9444E760936D1070936E1080936F10D4
:104C900090937010A7019601D5016D917D918D9132
:104CA0009C910E9444E7F501608371838283938322
:104CB000ACADBDAD6D917D918D919C910E94A2EBAB
:104CC000A70196010E9444E70E94AAE4ECADFDAD65
:104CD0006083718382839383D8014D925D926D923C
:104CE0007C92139707C00E94CD51F80160837183B5
:104CF0008283938333940C5F1F4FF4E0AF0EB11C9B
:104D00002CAD3DAD2C5F3F4F3DAF2CAF34E03312A7
:104D10008BCF0C942736E7E1F5E08491882311F4DA
:104D20000C9427369091C00095FFFCCF8093C6006D
:104D30003196F3CF8091B7049091B8046AE270E0A5
:104D400005960E94FEE6009711F40C942736FC01AC
:104D5000319710820C942736E4E1F5E084918823A2
:104D600041F09091C00095FFFCCF8093C600319632
:104D7000F5CF6091330B7091340B8091350B90918E
:104D8000360B42E00E94447CE1E1F5E08491882307
:104D900041F09091C00095FFFCCF8093C600319602
:104DA000F5CF6091370B7091380B8091390B909152
:104DB0003A0B42E00E94447CEEE0F5E084918823C7
:104DC00041F09091C00095FFFCCF8093C6003196D2
:104DD000F5CF60913B0B70913C0B80913D0B909116
:104DE0003E0B42E00E94447CEBE0F5E08491882396
:104DF00041F09091C00095FFFCCF8093C6003196A2
:104E0000F5CF60913F0B7091400B8091410B9091D9
:104E1000420B42E00E94447CE0E0F5E0849188236C
:104E200041F09091C00095FFFCCF8093C600319671
:104E3000F5CF2FB7F8946091230B7091240B8091DC
:104E4000250B9091260B2FBF0E94A4EB20916C0B99
:104E500030916D0B40916E0B50916F0B0E943DE4B1
:104E600042E00E94447CEDEFF4E08491882341F01D
:104E70009091C00095FFFCCF8093C6003196F5CF8E
:104E80002FB7F8946091270B7091280B8091290B14
:104E900090912A0B2FBF0E94A4EB2091700B3091B0
:104EA000710B4091720B5091730B0E943DE442E0F4
:104EB0000E94447CEAEFF4E08491882341F09091D1
:104EC000C00095FFFCCF8093C6003196F5CF2FB779
:104ED000F89460912B0B70912C0B80912D0B90917D
:104EE0002E0B2FBF0E94A4EB2091740B3091750BF9
:104EF0004091760B5091770B0E943DE442E00E9476
:104F0000447C8091C00085FFFCCF8AE08093C6007E
:104F10000C942736109215020C942736E1EEF4E03B
:104F20008491882341F09091C00095FFFCCF80933D
:104F3000C6003196F5CF8091C00085FFFCCF8AE096
:104F40008093C600E9EDF4E08491882341F09091CC
:104F5000C00095FFFCCF8093C6003196F5CF009B33
:104F600003C0EAECF4E00AC0EFECF4E007C0909173
:104F7000C00095FFFCCF8093C600319684918111CB
:104F8000F6CFE2ECF4E08491882341F09091C000E8
:104F900095FFFCCF8093C6003196F5CF049B03C0EC
:104FA000E3EBF4E00AC0E8EBF4E007C09091C00046
:104FB00095FFFCCF8093C600319684918111F6CF86
:104FC000EBEAF4E08491882341F09091C00095FFD2
:104FD000FCCF8093C6003196F5CF079B03C0ECE968
:104FE000F4E00AC0E1EAF4E007C09091C00095FF48
:104FF000FCCF8093C600319684918111F6CF0C943A
:1050000027363AEBE32E34E1F32E05E013E044E0DB
:10501000D42ED00ED8018D918D010E94A7518823E6
:1050200049F00E94CD510E94AAE4F7016083718388
:1050300082839383F4E0EF0EF11CD012EBCF0E9439
:10504000B7C30C94273691E8E92E90E1F92E05E0DC
:1050500013E024E0D22ED00ED8018D918D010E9454
:10506000A751882339F00E94CD51F70160837183E5
:1050700082839383F4E0EF0EF11CD012EDCF0C94F9
:10508000273683E50E94A751882351F00E94CD5115
:105090006093791070937A1080937B1090937C10BA
:1050A00084E50E94A751882311F40C9427360E94AE
:1050B000CD5160937D1070937E1080937F109093FC
:1050C00080100C94273683E50E94A751882351F065
:1050D0000E94CD5160939510709396108093971015
:1050E0009093981084E50E94A751882351F00E9464
:1050F000CD516093991070939A1080939B10909368
:105100009C1082E40E94A751882361F00E94CD5137
:105110000E94AAE460939110709392108093931070
:105120009093941088E50E94A751882351F00E9423
:10513000CD51609375107093761080937710909393
:1051400078108AE50E94A751882351F00E94CD5122
:105150006093711070937210809373109093741019
:1051600085E40E94A751882311F40C9427360E94ED
:10517000CD5160936D1070936E1080936F1090936B
:1051800070100C9427361EE9E12E10E1F12E05E097
:1051900013E083E0D82ED00ED8018D918D010E94AE
:1051A000A751882339F00E94CD51F70160837183A4
:1051B00082839383F4E0EF0EF11CD012EDCF0C94B8
:1051C000273683E50E94A751882351F00E94CD51D4
:1051D00060933702709338028093390290933A02B9
:1051E00086E40E94A751882351F00E94CD5160931C
:1051F00033027093340280933502909336028AE52D
:105200000E94A751882311F40C9427360E94CD5197
:1052100060934A0270934B0280934C0290934D022C
:105220000C94273683E50E94A751882351F00E94F1
:10523000CD516093C8197093C9198093CA1990937E
:10524000CB1986E40E94A751882311F40C942736C9
:105250000E94CD51609346027093470280934802AA
:10526000909349020C94273683E50E94A751882326
:1052700011F40C9427360E94CD510E94A5E46115CB
:10528000710551F06130710569F481E08093CC19AA
:105290001092C5190C9427361092CC191092C5198A
:1052A0000C942736EAE0F7E08491882341F090914E
:1052B000C00095FFFCCF8093C6003196F5CFE9E89A
:1052C000F4E08491882341F09091C00095FFFCCFD9
:1052D0008093C6003196F5CF8091D2079091D30785
:1052E00020E6289FF001299FF00D1124EE52FB4F7C
:1052F0008191882339F09091C00095FFFCCF809375
:10530000C600F6CFE7E8F4E08491882341F090915D
:10531000C00095FFFCCF8093C6003196F5CF8091F9
:10532000C00085FFFCCF8AE08093C6000C9427362E
:1053300083E50E94A751882311F40C9427360E941C
:10534000CD510E94A5E470933202609331020C9417
:10535000273683E50E94A751882311F40C94273641
:1053600000915B0B10E00E94CD51000F111F055CF6
:105370001D4F0E94A5E4D8016D937C930C942736B1
:1053800083E50E94A751882331F00E94CD510E94ED
:10539000AAE47B0103C0AEE6EA2EF12C80E50E9470
:1053A000A751882311F40C94F5390E94CD510E9425
:1053B000AAE48B01E114F10409F443C0970140E031
:1053C00050E060E271EA87E090E00E9418E3690132
:1053D0007A01F22FED2DA701013ABFE01B0710F073
:1053E00000EA1FE09801A4EFB1E00E941CEF2F2F0C
:1053F0003E2F0E94F0EEB601CC0CDD1CCC0CDD1C67
:10540000E5E0CE1AD10880E090E0DC018217930736
:10541000A407B50711F40C9427365B9A6230710526
:1054200018F0F6013197F1F75B986230710518F0CA
:10543000F6013197F1F70196A11DB11DE7CF08EEF6
:1054400013E06801E12CF12C0E9427744B015C01F0
:10545000C114D104E104F10411F40C9427360E9424
:105460002774DC01CB0188199909AA09BB09883E78
:105470009340A105B10560F3F1E0CF1AD108E1082E
:10548000F10828EE820E23E0921EA11CB11CC1146B
:10549000D104E104F10419F7DBCF80E50E94A751A4
:1054A000882351F00E94CD51609322027093230211
:1054B000809324029093250289E40E94A7518823B7
:1054C00081F00E94CD512DEB37E346E05DE30E9471
:1054D00044E76093090270930A0280930B02909351
:1054E0000C0284E40E94A751882381F00E94CD51D0
:1054F0002DEB37E346E05DE30E943DE460931E023E
:1055000070931F02809320029093210283E40E94F3
:10551000A751882351F00E94CD51609300027093EF
:10552000010280930202909303020E94387AE4E819
:10553000F4E08491882341F09091C00095FFFCCF66
:105540008093C6003196F5CFE0E8F4E0849188239B
:1055500041F09091C00095FFFCCF8093C60031963A
:10556000F5CF6091220270912302809124029091E4
:10557000250242E00E94447CECE7F4E08491882319
:1055800041F09091C00095FFFCCF8093C60031960A
:10559000F5CF2DEB37E346E05DE3609109027091B2
:1055A0000A0280910B0290910C020E943DE442E0BD
:1055B0000E94447CE8E7F4E08491882341F09091D4
:1055C000C00095FFFCCF8093C6003196F5CF2DEB40
:1055D00037E346E05DE360911E0270911F02809107
:1055E0002002909121020E9444E742E00E94447C04
:1055F000E4E7F4E08491882341F09091C00095FFA6
:10560000FCCF8093C6003196F5CF60910002709177
:105610000102809102029091030242E00E94447CC8
:105620008091C00085FFFCCF8AE08093C6000C9477
:10563000273683E50E94A751882319F00E94CD5197
:1056400003C060E070E0CB0160933D0270933E02C6
:1056500080933F02909340020C94273685E40E9489
:10566000A751882341F00E94CD510E94A5E48B01EF
:1056700077FF03C011C000E010E028961FAE289706
:1056800029961FAE299746E12A964FAF2A9753E4F1
:105690002B965FAF2B970EC028961FAE28972996A2
:1056A0001FAE29978CE82A968FAF2A9792E42B9603
:1056B0009FAF2B9783E50E94A751882371F00E942A
:1056C000CD5128966FAF289729967FAF29972A96B4
:1056D0008FAF2A972B969FAF2B9783E40E94A751F9
:1056E000882349F00E94CD510E94A5E4A7967FAF80
:1056F0006EAFA79706C0A5E0B0E0A796BFAFAEAF6C
:10570000A7970E944C7427966CAF7DAF8EAF9FAF6A
:10571000279702301105B4F0E2ECF3E0849188237E
:1057200041F09091C00095FFFCCF8093C600319668
:10573000F5CF8091C00085FFFCCF8AE08093C60042
:105740000C942736EFEAF3E08491882341F090919E
:10575000C00095FFFCCF8093C6003196F5CF8091B5
:10576000C00085FFFCCF8AE08093C6000E94A2742F
:105770008FE717FF64C08093DC0A27962CAD3DAD00
:105780004EAD5FAD279765962CAF3DAF4EAF5FAF87
:105790006597AB962CAF3DAF4EAF5FAFAB972C96F6
:1057A0001FAE2C9730E466963FAF66974CE1679644
:1057B0004FAF679756E468965FAF689769961FAEDC
:1057C00069976A961FAE6A976B961FAE6B976C9639
:1057D0001FAE6C978FE790E0A0E0B0E023968CAF0F
:1057E0009DAFAEAFBFAF23977FE7472E512C612C03
:1057F000712CA3961CAE1DAE1EAE1FAEA39791E0FA
:105800006D969FAF6D9761961FAE1EAE61971CAEF1
:10581000212C312C1EAED801A352B54FA596BFAF97
:10582000AEAFA597C801880F991F880F991FFC017B
:10583000ED52F54F6F96FFAFEEAF6F9709C0F801CD
:10584000E352F54F808399CF0E9461470E94FC9BF1
:105850008091DB0A882309F45EC10E94CA7717FF92
:105860000BC0F091CF0AFCAF2090D00A3090D10A43
:105870002091D20A2EAF0EC06F96AEADBFAD6F971E
:10588000BC91BCAF6F96EEADFFAD6F9721803280BB
:10589000F381FEAF2CAD322D432D5EAD69966FAD19
:1058A00069976A967FAD6A976B968FAD6B976C968A
:1058B0009FAD6C970E9487E5181674F02CAD699621
:1058C0002FAF69976A962FAE6A976B963FAE6B972C
:1058D0003EAD6C963FAF6C972CAD322D432D5EAD37
:1058E0002C966FAD2C9766967FAD669767968FADB9
:1058F000679768969FAD68970E949EEB87FD0EC0E4
:105900004CAD2C964FAF2C9766962FAE6697679648
:105910003FAE67975EAD68965FAF68976D968FAD47
:105920006D97882309F475C028962FAD289729967E
:105930003FAD29972A964FAD2A972B965FAD2B97AF
:105940006CAD722D832D9EAD0E9487E518160CF06C
:10595000E2C00E944C74DC01CB0127962CAD3DAD1A
:105960004EAD5FAD2797821B930BA40BB50B893807
:105970009341A105B10508F4CEC0D301C20123961D
:105980002CAD3DAD4EAD5FAD2397821B930BA40BA9
:10599000B50BB595A7959795879517FF03C080938D
:1059A000DC0A05C0A596EEADFFADA59780830E94E9
:1059B0004C7465966CAF7DAF8EAF9FAF65979B01C2
:1059C000AC0127968CAD9DADAEADBFAD2797281B22
:1059D000390B4A0B5B0BA3962CAF3DAF4EAF5FAFBD
:1059E000A39728969FAD289769969FAF69972996A8
:1059F000AFAD29976A96AFAF6A972A96BFAD2A973F
:105A00006B96BFAF6B972B96EFAD2B976C96EFAF66
:105A10006C9728962FAD289729963FAD29972A96FF
:105A20004FAD2A972B965FAD2B976CAD722D832DC2
:105A30009EAD0E949EEB87FD02C00C94E53B0E9448
:105A40004C74DC01CB0165962CAD3DAD4EAD5FAD28
:105A50006597821B930BA40BB50B89389341A10565
:105A6000B10510F40C94E53B0E944C7427966CAF82
:105A70007DAF8EAF9FAF2797DC01CB0165962CAD34
:105A80003DAD4EAD5FAD6597821B930BA40BB50B7F
:105A900061964EAD5FAD61971416150614F40C9423
:105AA0000C3A23968CAD9DADAEADBFAD2397840D62
:105AB000951DA61DB71DB595A7959795879517FDBB
:105AC00002C00C94DE3B8093DC0A61962EAD3FADA4
:105AD00061972F5F3F4F61963FAF2EAF619728963A
